:100ACA00496E697400436C69656E74310041434B29
:090ADA00008E0CEE9E01010101E9
:100A0F008B148A1589161208F6F5807590187FFADF
:100A1F007E00120B69AB14AA15A9169000011209DA
:100A2F000FF5807590147FFA7E00120B69AB14AA34
:100A3F0015A91690000212090FF5807590127FFA12
:100A4F007E00120B69AB14AA15A9169000031209A8
:100A5F000FF5807590117FFA7E00120B69E4F59007
:060A6F007FFAFE020B6994
:10093C00780A7C007D007BFF7A0A79DB7E007F04DD
:10094C001208D0780E7C007D007BFF7A0A79DF7E5E
:10095C00007F041208D0C2B2120B2A120B817BFF4B
:10096C007A0A79CA120A75120B4EAF13120B5C8FEE
:10097C0012E512651360058512138004E51204FF5D
:10098C00120B8BE5126466704820B30DD2B2120BB9
:10099C00817BFF7A0A79CF800BC2B2120B817BFF6D
:1009AC007A0A79D7120A75E4F508F5097B007A0002
:1009BC00790A120A0F0509E50970020508C394C8E3
:1009CC00E5086480948040E4C2B27F01120B3E8043
:1009DC0099C2B2E4F508F5097B007A00790E120A87
:1009EC000F0509E50970020508C394C8E508648081
:1009FC00948040E4120B817BFF7A0A79CA120A7543
:030A0C0002097666
:0C0B6900EF4E6007EF1F70F81E80F522B1
:100B1300AD07AC06ED4C600E7F707E00120B69EDE5
:070B23001D70F11C80EE22A1
:100B3E00AB07EB600A7FE87E03120B131B80F322D8
:0E0B4E00438920758DFD759850D28EC2982275
:080B8B008F993099FDC29922F7
:0D0B5C00309805C298AF99228F99AF992269
:060AA0008B198A1A891B64
:100AA600E4FDFCAB19AA1AA91B8D828C8312090FCF
:100AB600FF600A120B8B0DBD00010C80E67F0A1247
:040AC6000B8B80FE18
:100AE3008FA0C2B7C2B6D2B57F0A7E00120B69C20D
:080AF300B57F017E00020B1328
:100AFB008FA0D2B7C2B6D2B57F0A7E00120B69C2E5
:080B0B00B57F017E00020B130F
:060A75008B148A1589169E
:100A7B00E4F517F518AB14AA15A916851882851776
:100A8B008312090FFF600D120AFB0518E51870E5BC
:040A9B00051780E1DA
:010A9F002234
:100B2A007F38120AE37F0E120AE37F01120AE37F7B
:040B3A0080020AE348
:0A0B81007F01120AE37F80020AE3FD
:03000000020B757B
:0C0B7500787FE4F6D8FD75811B02093C76
:10080000E709F608DFFA8046E709F208DFFA803EDA
:1008100088828C83E709F0A3DFFA8032E309F608C7
:10082000DFFA8078E309F208DFFA807088828C832F
:10083000E309F0A3DFFA806489828A83E0A3F608E3
:10084000DFFA805889828A83E0A3F208DFFA804CBD
:1008500080D280FA80C680D4806980F28033801094
:1008600080A680EA809A80A880DA80E280CA8033FD
:1008700089828A83ECFAE493A3C8C582C8CCC58375
:10088000CCF0A3C8C582C8CCC583CCDFE9DEE78045
:100890000D89828A83E493A3F608DFF9ECFAA9F0C4
:1008A000EDFB2289828A83ECFAE0A3C8C582C8CC1A
:1008B000C583CCF0A3C8C582C8CCC583CCDFEADE33
:1008C000E880DB89828A83E493A3F208DFF980CC95
:1008D00088F0EF60010E4E60C388F0ED2402B4048E
:1008E0000050B9F582EB2402B4040050AF23234535
:0608F00082239008507302
:1008F600BB010689828A83E0225002E722BBFE0200
:09090600E32289828A83E4932232
:10090F00BB010CE58229F582E5833AF583E022509D
:10091F0006E92582F8E622BBFE06E92582F8E222E7
:0D092F00E58229F582E5833AF583E4932201
:00000001FF
