:100AA1008FA0D2B7C2B6D2B57F0A7E00120B20C288
:080AB100B57F017E00020AD1AD
:100AB9008FA0C2B7C2B6D2B57F0A7E00120B20C280
:080AC900B57F017E00020AD195
:060A4C008B148A158916C7
:100A5200E4F517F518AB14AA15A91685188285179F
:100A62008312090FFF600D120AB90518E51870E527
:040A7200051780E103
:010A7600225D
:100AE8007F38120AA17F0E120AA17F01120AA17F84
:040AF80080020AA1CD
:100AFC0041434B00436C69656E7431008E0CEE9E65
:040B0C0001010101E1
:1009E6008B148A1589161208F6F5807590187FFA09
:1009F6007E00120B20AB14AA15A91690000112094D
:100A06000FF5807590147FFA7E00120B20AB14AAA6
:100A160015A91690000212090FF5807590127FFA3B
:100A26007E00120B20AB14AA15A91690000312091A
:100A36000FF5807590117FFA7E00120B20E4F59079
:060A46007FFAFE020B2006
:10093C00780A7C007D007BFF7A0B79087E007F04AF
:10094C001208D0780E7C007D007BFF7A0B790C7E30
:10095C00007F041208D0120B2C120AE8120B4C8FD9
:10096C0012120B4C8F12E5126513600DE4F5138512
:10097C001213E51204FF120B44E512646670422058
:10098C00B10AD2B07BFF7A0A79FC8008C2B07BFF37
:10099C007A0B7900120A4CE4F508F5097B007A0011
:1009AC00790A1209E60509E50970020508C394C81D
:1009BC00E5086480948040E4C2B07F01120B108083
:1009CC00A0E512B47107E4F590C2B08094C2B07B7C
:0A09DC00007A00790E1209E6808708
:0C0B2000EF4E6007EF1F70F81E80F522FA
:100AD100AD07AC06ED4C600E7F707E00120B20ED71
:070AE1001D70F11C80EE22E4
:100B1000AB07EB600A7FE87E03120AD11B80F32249
:0C0B2C00759850758920758DFDD28E22C1
:080B44008F993099FDC299223E
:080B4C003098FDC298AF992218
:060A77008B198A1A891B8D
:100A7D00E4FDFCAB19AA1AA91B8D828C8312090FF8
:100A8D00FF600A120B440DBD00010C80E67F0A12B7
:040A9D000B4480FE88
:03000000020B38B8
:0C0B3800787FE4F6D8FD75811B02093CB3
:10080000E709F608DFFA8046E709F208DFFA803EDA
:1008100088828C83E709F0A3DFFA8032E309F608C7
:10082000DFFA8078E309F208DFFA807088828C832F
:10083000E309F0A3DFFA806489828A83E0A3F608E3
:10084000DFFA805889828A83E0A3F208DFFA804CBD
:1008500080D280FA80C680D4806980F28033801094
:1008600080A680EA809A80A880DA80E280CA8033FD
:1008700089828A83ECFAE493A3C8C582C8CCC58375
:10088000CCF0A3C8C582C8CCC583CCDFE9DEE78045
:100890000D89828A83E493A3F608DFF9ECFAA9F0C4
:1008A000EDFB2289828A83ECFAE0A3C8C582C8CC1A
:1008B000C583CCF0A3C8C582C8CCC583CCDFEADE33
:1008C000E880DB89828A83E493A3F208DFF980CC95
:1008D00088F0EF60010E4E60C388F0ED2402B4048E
:1008E0000050B9F582EB2402B4040050AF23234535
:0608F00082239008507302
:1008F600BB010689828A83E0225002E722BBFE0200
:09090600E32289828A83E4932232
:10090F00BB010CE58229F582E5833AF583E022509D
:10091F0006E92582F8E622BBFE06E92582F8E222E7
:0D092F00E58229F582E5833AF583E4932201
:00000001FF
