:100ABD00496E697400436C69656E74310041434B36
:090ACD00008E0CEE9E01010101F6
:100A02008B158A1689171208F6F5807590187FFAE9
:100A12007E00120B4FAB15AA16A9179000011209FE
:100A22000FF5807590147FFA7E00120B4FAB15AA5A
:100A320016A91790000212090FF5807590127FFA1D
:100A42007E00120B4FAB15AA16A9179000031209CC
:100A52000FF5807590117FFA7E00120B4FE4F5902E
:060A62007FFAFE020B4FBB
:10093C00750A61780B7C007D007BFF7A0A79CE7E8C
:10094C00007F041208D0780F7C007D007BFF7A0AB0
:10095C0079D27E007F041208D0C2B0120B1D120B8C
:10096C00677BFF7A0A79BD120A68120B41050A12DD
:10097C000B798F13120B67AF0A120AEEE51365148D
:10098C0060078513147F6180027F62120B71E5137F
:10099C006466704820B10DD2B0120B677BFF7A0AE7
:1009AC0079C2800BC2B0120B677BFF7A0A79CA122C
:1009BC000A68E4F508F5097B007A00790B120A0243
:1009CC000509E50970020508C394C8E5086480941C
:1009DC008040E4C2B07F01120B318091C2B07B0029
:1009EC007A00790F120A02120B677BFF7A0A79BD23
:0609FC00120A68020979ED
:0C0B4F00EF4E6007EF1F70F81E80F522CB
:100B0600AD07AC06ED4C600E7F707E00120B4FED0C
:070B16001D70F11C80EE22AE
:100B3100AB07EB600A7FE87E03120B061B80F322F2
:0E0B4100438920758DFD759850D28EC2982282
:080B71008F993099FDC2992211
:080B79003098FDC298AF9922EB
:060A93008B1A8A1B891C6E
:100A9900E4FDFCAB1AAA1BA91C8D828C8312090FD9
:100AA900FF600A120B710DBD00010C80E67F0A126E
:040AB9000B7180FE3F
:100AD6008FA0C2B7C2B6D2B57F0A7E00120B4FC234
:080AE600B57F017E00020B0642
:100AEE008FA0D2B7C2B6D2B57F0A7E00120B4FC20C
:080AFE00B57F017E00020B062A
:060A68008B158A168917A8
:100A6E00E4F518F519AB15AA16A91785198285187C
:100A7E008312090FFF600D120AEE0519E51970E5D4
:040A8E00051880E1E6
:010A92002241
:100B1D007F38120AD67F0E120AD67F01120AD67FAF
:040B2D0080020AD662
:0A0B67007F01120AD67F80020AD631
:03000000020B5B95
:0C0B5B00787FE4F6D8FD75811C02093C8F
:10080000E709F608DFFA8046E709F208DFFA803EDA
:1008100088828C83E709F0A3DFFA8032E309F608C7
:10082000DFFA8078E309F208DFFA807088828C832F
:10083000E309F0A3DFFA806489828A83E0A3F608E3
:10084000DFFA805889828A83E0A3F208DFFA804CBD
:1008500080D280FA80C680D4806980F28033801094
:1008600080A680EA809A80A880DA80E280CA8033FD
:1008700089828A83ECFAE493A3C8C582C8CCC58375
:10088000CCF0A3C8C582C8CCC583CCDFE9DEE78045
:100890000D89828A83E493A3F608DFF9ECFAA9F0C4
:1008A000EDFB2289828A83ECFAE0A3C8C582C8CC1A
:1008B000C583CCF0A3C8C582C8CCC583CCDFEADE33
:1008C000E880DB89828A83E493A3F208DFF980CC95
:1008D00088F0EF60010E4E60C388F0ED2402B4048E
:1008E0000050B9F582EB2402B4040050AF23234535
:0608F00082239008507302
:1008F600BB010689828A83E0225002E722BBFE0200
:09090600E32289828A83E4932232
:10090F00BB010CE58229F582E5833AF583E022509D
:10091F0006E92582F8E622BBFE06E92582F8E222E7
:0D092F00E58229F582E5833AF583E4932201
:00000001FF
