:0C0A8A00EF4E6007EF1F70F81E80F52291
:100A6300AD07AC06ED4C600E7F707E00120A8AED76
:070A73001D70F11C80EE2252
:100A7A00AB07EB600A7FE87E03120A631B80F3224E
:080AAE008E0CEE9E0101010116
:1009D3008B148A1589161208F6F5807590187FFA1C
:1009E3007E00120A8AAB14AA15A9169000011209F7
:1009F3000FF5807590147FFA7E00120A8AAB14AA51
:100A030015A91690000212090FF5807590127FFA4E
:100A13007E00120A8AAB14AA15A9169000031209C4
:100A23000FF5807590117FFA7E00120A8AE4F59023
:060A33007FFAFE020A8AB0
:10093C00780A7C007D007BFF7A0A79AE7E007F040A
:10094C001208D0780E7C007D007BFF7A0A79B27E8B
:10095C00007F041208D0120A96120ABE8F12120AD5
:10096C00BE8F12E5126513600DE4F513851213E5C5
:10097C001204FF120AB6E5126466702E30A12BD257
:10098C00A0F508F5097B007A00790A1209D305094C
:10099C00E50970020508C394C8E50864809480409A
:1009AC00E4C2A07F01120A7A80B4E512647160037C
:1009BC0020A107E4F590C2A080A4C2A07B007A001D
:0709CC00790E1209D3809798
:0C0A9600759850758920758DFDD28E2258
:080AB6008F993099FDC29922CD
:060A39008B178A188919D1
:100A3F00E4FDFCAB17AA18A9198D828C8312090F3C
:100A4F00FF600A120AB60DBD00010C80E67F0A1284
:040A5F000AB680FE55
:080ABE00309802C298AF9922A2
:03000000020AA24F
:0C0AA200787FE4F6D8FD75811902093C4C
:10080000E709F608DFFA8046E709F208DFFA803EDA
:1008100088828C83E709F0A3DFFA8032E309F608C7
:10082000DFFA8078E309F208DFFA807088828C832F
:10083000E309F0A3DFFA806489828A83E0A3F608E3
:10084000DFFA805889828A83E0A3F208DFFA804CBD
:1008500080D280FA80C680D4806980F28033801094
:1008600080A680EA809A80A880DA80E280CA8033FD
:1008700089828A83ECFAE493A3C8C582C8CCC58375
:10088000CCF0A3C8C582C8CCC583CCDFE9DEE78045
:100890000D89828A83E493A3F608DFF9ECFAA9F0C4
:1008A000EDFB2289828A83ECFAE0A3C8C582C8CC1A
:1008B000C583CCF0A3C8C582C8CCC583CCDFEADE33
:1008C000E880DB89828A83E493A3F208DFF980CC95
:1008D00088F0EF60010E4E60C388F0ED2402B4048E
:1008E0000050B9F582EB2402B4040050AF23234535
:0608F00082239008507302
:1008F600BB010689828A83E0225002E722BBFE0200
:09090600E32289828A83E4932232
:10090F00BB010CE58229F582E5833AF583E022509D
:10091F0006E92582F8E622BBFE06E92582F8E222E7
:0D092F00E58229F582E5833AF583E4932201
:00000001FF
