:0C0A0500EF4E6007EF1F70F81E80F52216
:1009DE00AD07AC06ED4C600E7F707E00120A05ED81
:0709EE001D70F11C80EE22D8
:1009F500AB07EB600A7FE87E031209DE1B80F3225A
:040A39008E0CEE9E93
:10092300780B7C007D007BFF7A0A79397E007F0497
:100933001208D0850B807590187FFA7E00120A0585
:10094300850C807590147FFA7E00120A05850D8050
:100953007590127FFA7E00120A05850E807590113C
:100963007FFA7E00120A05E4F5907FFAFE020A057B
:10097300120A11120A318F0A120A318F0AE50AB4D8
:100983006622E4F508F5091209230509E509700251
:100993000508C394C8E5086480948040EA7F011287
:1009A30009F58008E50AB46F03E4F590E4F50A80DD
:0109B300C77C
:0C0A1100759850758920758DFDD28E22DD
:080A29008F993099FDC299225A
:0609B4008B0F8A1089116F
:1009BA00E4FDFCAB0FAA10A9118D828C831208F6F4
:1009CA00FF600A120A290DBD00010C80E67F0A1297
:0409DA000A2980FE68
:080A31003098FDC298AF992234
:03000000020A1DD4
:0C0A1D00787FE4F6D8FD758111020973A2
:10080000E709F608DFFA8046E709F208DFFA803EDA
:1008100088828C83E709F0A3DFFA8032E309F608C7
:10082000DFFA8078E309F208DFFA807088828C832F
:10083000E309F0A3DFFA806489828A83E0A3F608E3
:10084000DFFA805889828A83E0A3F208DFFA804CBD
:1008500080D280FA80C680D4806980F28033801094
:1008600080A680EA809A80A880DA80E280CA8033FD
:1008700089828A83ECFAE493A3C8C582C8CCC58375
:10088000CCF0A3C8C582C8CCC583CCDFE9DEE78045
:100890000D89828A83E493A3F608DFF9ECFAA9F0C4
:1008A000EDFB2289828A83ECFAE0A3C8C582C8CC1A
:1008B000C583CCF0A3C8C582C8CCC583CCDFEADE33
:1008C000E880DB89828A83E493A3F208DFF980CC95
:1008D00088F0EF60010E4E60C388F0ED2402B4048E
:1008E0000050B9F582EB2402B4040050AF23234535
:0608F00082239008507302
:1008F600BB010CE58229F582E5833AF583E02250B7
:1009060006E92582F8E622BBFE06E92582F8E22200
:0D091600E58229F582E5833AF583E493221A
:00000001FF
