:0C0A8300EF4E6007EF1F70F81E80F52298
:100A5C00AD07AC06ED4C600E7F707E00120A83ED84
:070A6C001D70F11C80EE2259
:100A7300AB07EB600A7FE87E03120A5C1B80F3225C
:080AA7008E0CEE9E010101011D
:1009CC008B148A1589161208F6F5807590187FFA23
:1009DC007E00120A83AB14AA15A916900001120905
:1009EC000FF5807590147FFA7E00120A83AB14AA5F
:1009FC0015A91690000212090FF5807590127FFA56
:100A0C007E00120A83AB14AA15A9169000031209D2
:100A1C000FF5807590117FFA7E00120A83E4F59031
:060A2C007FFAFE020A83BE
:10093C00780A7C007D007BFF7A0A79A77E007F0411
:10094C001208D0780E7C007D007BFF7A0A79AB7E92
:10095C00007F041208D0120A8F120AB78F12120AE3
:10096C00B78F12E5126513600DE4F513851213E5CC
:10097C001204FF120AAFE512B4662CD2A0E4F508FB
:10098C00F5097B007A00790A1209CC0509E5097092
:10099C00020508C394C8E5086480948040E4C2A0B2
:1009AC007F01120A7380B7E512B47107E4F590C2A7
:1009BC00A080ABC2A07B007A00790E1209CC809E7D
:0C0A8F00759850758920758DFDD28E225F
:080AAF008F993099FDC29922D4
:060A32008B178A188919D8
:100A3800E4FDFCAB17AA18A9198D828C8312090F43
:100A4800FF600A120AAF0DBD00010C80E67F0A1292
:040A58000AAF80FE63
:080AB700309802C298AF9922A9
:03000000020A9B56
:0C0A9B00787FE4F6D8FD75811902093C53
:10080000E709F608DFFA8046E709F208DFFA803EDA
:1008100088828C83E709F0A3DFFA8032E309F608C7
:10082000DFFA8078E309F208DFFA807088828C832F
:10083000E309F0A3DFFA806489828A83E0A3F608E3
:10084000DFFA805889828A83E0A3F208DFFA804CBD
:1008500080D280FA80C680D4806980F28033801094
:1008600080A680EA809A80A880DA80E280CA8033FD
:1008700089828A83ECFAE493A3C8C582C8CCC58375
:10088000CCF0A3C8C582C8CCC583CCDFE9DEE78045
:100890000D89828A83E493A3F608DFF9ECFAA9F0C4
:1008A000EDFB2289828A83ECFAE0A3C8C582C8CC1A
:1008B000C583CCF0A3C8C582C8CCC583CCDFEADE33
:1008C000E880DB89828A83E493A3F208DFF980CC95
:1008D00088F0EF60010E4E60C388F0ED2402B4048E
:1008E0000050B9F582EB2402B4040050AF23234535
:0608F00082239008507302
:1008F600BB010689828A83E0225002E722BBFE0200
:09090600E32289828A83E4932232
:10090F00BB010CE58229F582E5833AF583E022509D
:10091F0006E92582F8E622BBFE06E92582F8E222E7
:0D092F00E58229F582E5833AF583E4932201
:00000001FF
