:0C0A0800EF4E6007EF1F70F81E80F52213
:1009E100AD07AC06ED4C600E7F707E00120A08ED7B
:0709F1001D70F11C80EE22D5
:1009F800AB07EB600A7FE87E031209E11B80F32254
:040A3C008E0CEE9E90
:10092300780B7C007D007BFF7A0A793C7E007F0494
:100933001208D0850B807590187FFA7E00120A0882
:10094300850C807590147FFA7E00120A08850D804D
:100953007590127FFA7E00120A08850E8075901139
:100963007FFA7E00120A08E4F5907FFAFE020A0875
:10097300120A14120A348F0A120A348F0AE50AB4CF
:100983006626D2A0E4F508F5091209230509E5094D
:1009930070020508C394C8E5086480948040EAC2E5
:1009A300A07F011209F880D0E50AB46FCBE4F5907B
:0409B300C2A080C49A
:0C0A1400759850758920758DFDD28E22DA
:080A2C008F993099FDC2992257
:0609B7008B0F8A1089116C
:1009BD00E4FDFCAB0FAA10A9118D828C831208F6F1
:1009CD00FF600A120A2C0DBD00010C80E67F0A1291
:0409DD000A2C80FE62
:080A3400309802C298AF99222C
:03000000020A20D1
:0C0A2000787FE4F6D8FD7581110209739F
:10080000E709F608DFFA8046E709F208DFFA803EDA
:1008100088828C83E709F0A3DFFA8032E309F608C7
:10082000DFFA8078E309F208DFFA807088828C832F
:10083000E309F0A3DFFA806489828A83E0A3F608E3
:10084000DFFA805889828A83E0A3F208DFFA804CBD
:1008500080D280FA80C680D4806980F28033801094
:1008600080A680EA809A80A880DA80E280CA8033FD
:1008700089828A83ECFAE493A3C8C582C8CCC58375
:10088000CCF0A3C8C582C8CCC583CCDFE9DEE78045
:100890000D89828A83E493A3F608DFF9ECFAA9F0C4
:1008A000EDFB2289828A83ECFAE0A3C8C582C8CC1A
:1008B000C583CCF0A3C8C582C8CCC583CCDFEADE33
:1008C000E880DB89828A83E493A3F208DFF980CC95
:1008D00088F0EF60010E4E60C388F0ED2402B4048E
:1008E0000050B9F582EB2402B4040050AF23234535
:0608F00082239008507302
:1008F600BB010CE58229F582E5833AF583E02250B7
:1009060006E92582F8E622BBFE06E92582F8E22200
:0D091600E58229F582E5833AF583E493221A
:00000001FF
