:0C0A8000EF4E6007EF1F70F81E80F5229B
:100A5900AD07AC06ED4C600E7F707E00120A80ED8A
:070A69001D70F11C80EE225C
:100A7000AB07EB600A7FE87E03120A591B80F32262
:080AA4008E0CEE9E0101010120
:1009C9008B138A1489151208F6F5807590187FFA29
:1009D9007E00120A80AB13AA14A91590000112090E
:1009E9000FF5807590147FFA7E00120A80AB13AA66
:1009F90014A91590000212090FF5807590127FFA5B
:100A09007E00120A80AB13AA14A9159000031209DB
:100A19000FF5807590117FFA7E00120A80E4F59037
:060A29007FFAFE020A80C4
:10093C00780A7C007D007BFF7A0A79A47E007F0414
:10094C001208D0780E7C007D007BFF7A0A79A87E95
:10095C00007F041208D0120A8C120AB48F12120AE9
:10096C00B48F12E512646670317F66120AACD2A0A5
:10097C00E4F508F5097B007A00790A1209C9050922
:10098C00E50970020508C394C8E5086480948040AA
:10099C00E4C2A07F01120A7080C4E512B4710C7F0E
:1009AC004F120AACE4F590C2A080B37F4F120AAC90
:0D09BC00C2A07B007A00790E1209C980A14B
:0C0A8C00759850758920758DFDD28E2262
:080AAC008F993099FDC29922D7
:060A2F008B168A178918DE
:100A3500E4FDFCAB16AA17A9188D828C8312090F49
:100A4500FF600A120AAC0DBD00010C80E67F0A1298
:040A55000AAC80FE69
:080AB400309802C298AF9922AC
:03000000020A9859
:0C0A9800787FE4F6D8FD75811802093C57
:10080000E709F608DFFA8046E709F208DFFA803EDA
:1008100088828C83E709F0A3DFFA8032E309F608C7
:10082000DFFA8078E309F208DFFA807088828C832F
:10083000E309F0A3DFFA806489828A83E0A3F608E3
:10084000DFFA805889828A83E0A3F208DFFA804CBD
:1008500080D280FA80C680D4806980F28033801094
:1008600080A680EA809A80A880DA80E280CA8033FD
:1008700089828A83ECFAE493A3C8C582C8CCC58375
:10088000CCF0A3C8C582C8CCC583CCDFE9DEE78045
:100890000D89828A83E493A3F608DFF9ECFAA9F0C4
:1008A000EDFB2289828A83ECFAE0A3C8C582C8CC1A
:1008B000C583CCF0A3C8C582C8CCC583CCDFEADE33
:1008C000E880DB89828A83E493A3F208DFF980CC95
:1008D00088F0EF60010E4E60C388F0ED2402B4048E
:1008E0000050B9F582EB2402B4040050AF23234535
:0608F00082239008507302
:1008F600BB010689828A83E0225002E722BBFE0200
:09090600E32289828A83E4932232
:10090F00BB010CE58229F582E5833AF583E022509D
:10091F0006E92582F8E622BBFE06E92582F8E222E7
:0D092F00E58229F582E5833AF583E4932201
:00000001FF
